:100000000C942A000C94B0110C94DC110C94470051
:100010000C9447000C9447000C9447000C94470044
:100020000C9447000C9447000C9447000C94470034
:100030000C9447000C9447000C9447000C94470024
:100040000C9447000C9447000C9447000C94470014
:100050000C94470011241FBECFE5D8E0DEBFCDBF12
:1000600010E0A0E6B0E0E2E7F4E202C005900D92F5
:10007000A238B107D9F710E0A2E8B0E001C01D92A4
:10008000A438B107E1F70E9483110C9437120C9445
:100090000000EF92FF920F931F937B018C0120E0F1
:1000A00030E040E05FE40E94F50388238CF0C80153
:1000B000B70120E030E040E05FE40E94C1010E940F
:1000C00055049B01AC01205030404040504806C0D0
:1000D000C801B7010E9455049B01AC01B901CA01D6
:1000E0001F910F91FF90EF900895A0E0B0E0EBE733
:1000F000F0E00C940012DC012B01FA019C9192308B
:1001000008F439C1EB018881823008F433C194309E
:1001100069F4843009F02FC111969C91119789815F
:10012000981709F428C1A0E6B0E025C1843009F48D
:1001300021C18230A9F4923009F01DC19A01AD01AC
:1001400088E0EA010990AE01E90109929E0181501F
:10015000C1F7E201898111969C918923818308C1AD
:10016000923009F407C112962D903C901397EB0141
:100170008A819B811496AD90BD90CD90DC901797AD
:10018000EC80FD800E811F819101281B390BB90184
:1001900037FF04C066277727621B730B6032710537
:1001A0000CF061C0121613066CF537014801062EDB
:1001B00004C096948794779467940A94D2F721E0C8
:1001C00030E040E050E004C0220F331F441F551FB1
:1001D0006A95D2F721503040404050402E213F21B7
:1001E00040235123211531054105510521F021E01E
:1001F00030E040E050E079018A01E628F72808293C
:1002000019293CC0232BD1F1260E371E350146019A
:10021000062E04C096948794779467940A94D2F734
:1002200021E030E040E050E004C0220F331F441FC3
:10023000551F6A95D2F721503040404050402A2146
:100240003B214C215D21211531054105510521F04E
:1002500021E030E040E050E059016A01A628B728CB
:10026000C828D9280BC0821593052CF01C01AA249C
:10027000BB24650103C0EE24FF24870111969C91E5
:10028000D20111968C91981709F445C0992339F041
:10029000A80197012A193B094C095D0906C0A6016E
:1002A00095012E193F09400B510B57FD08C01182D3
:1002B0003382228224833583468357831DC081E0A5
:1002C00081833382228288279927DC01821B930B4A
:1002D000A40BB50B84839583A683B7830DC0220F2F
:1002E000331F441F551F24833583468357838281E0
:1002F000938101979383828324813581468157813D
:10030000DA01C9010197A109B1098F5F9F4FAF4F72
:10031000BF4328F30BC0918333822282EA0CFB1C7B
:100320000C1D1D1DE482F5820683178383E0808304
:10033000248135814681578157FF1AC0C901AA27F8
:1003400097FDA095BA2F81709070A070B0705695EF
:10035000479537952795822B932BA42BB52B848318
:100360009583A683B7838281938101969383828349
:10037000DF0101C0D201CD01CDB7DEB7E2E10C94BF
:100380001C12A0E2B0E0E7ECF1E00C940C126983DF
:100390007A838B839C832D833E834F835887E9E048
:1003A000EE2EF12CEC0EFD1ECE010196B7010E943F
:1003B0007E058E010F5E1F4FCE010596B8010E948B
:1003C0007E058A8991E089278A8BC701B801AE0131
:1003D000475E5F4F0E9475000E94A904A096E6E068
:1003E0000C942812A0E2B0E0E8EFF1E00C940C12BB
:1003F00069837A838B839C832D833E834F835887C5
:10040000F9E0EF2EF12CEC0EFD1ECE010196B701A6
:100410000E947E058E010F5E1F4FCE010596B8012A
:100420000E947E05C701B801AE01475E5F4F0E9482
:1004300075000E94A904A096E6E00C942812A0E2A0
:10044000B0E0E5E2F2E00C94001269837A838B83DA
:100450009C832D833E834F835887CE010196BE0136
:10046000675F7F4F0E947E05CE010596BE016F5EDD
:100470007F4F0E947E059985923088F0898982306D
:10048000C8F0943019F4823051F404C0843029F457
:10049000923081F480E690E0C6C0923049F420E0CA
:1004A0009A858A89981321E02A87CE010996BBC0D4
:1004B000823049F420E09A858A89981321E02A8BBA
:1004C000CE014196B0C02D843E844F8458886D88FB
:1004D0007E888F88988CEE24FF248701AA24BB2471
:1004E000650140E050E060E070E0E0E0F0E0C10174
:1004F00081709070892BE9F0E60CF71C081D191D1E
:100500009A01AB012A0D3B1D4C1D5D1D80E090E062
:10051000A0E0B0E0E614F7040805190520F481E036
:1005200090E0A0E0B0E0BA01A901480F591F6A1F8E
:100530007B1FAA0CBB1CCC1CDD1C97FE08C081E0F5
:1005400090E0A0E0B0E0A82AB92ACA2ADB2A3196B6
:10055000E032F10549F0660C771C881C991C569412
:10056000479437942794C3CFFA85EA892B893C892D
:100570008B859C85280F391F2E5F3F4F17C0CA01FE
:1005800081709070892B61F016950795F794E79428
:1005900080E090E0A0E0B0E8E82AF92A0A2B1B2BC3
:1005A00076956795579547952F5F3F4F77FDE7CF36
:1005B0000CC0440F551F661F771F17FD4160EE0CDE
:1005C000FF1C001F111F21503040403090E05907A0
:1005D00090E0690790E4790760F32B8F3C8FDB0193
:1005E000CA018F779070A070B07080349105A1051A
:1005F000B10561F447FD0AC0E114F10401051105DC
:1006000029F0405C5F4F6F4F7F4F40781A8EFE1786
:1006100011F081E08A8F4D8F5E8F6F8F78A383E01A
:10062000898FCE0149960E94A904A096E2E10C941C
:100630001C12A8E1B0E0EFE1F3E00C94081269832A
:100640007A838B839C832D833E834F835887B9E0C5
:10065000EB2EF12CEC0EFD1ECE010196B7010E948F
:100660007E058E010F5E1F4FCE010596B8010E94D8
:100670007E052985223008F47EC03989323010F495
:10068000B8017CC08A859A8989278A87243011F02D
:10069000223031F4231709F06EC060E670E06EC0BE
:1006A000343039F41D861E861F86188A1C861B86E8
:1006B00004C0323021F484E08987B7015FC02B8504
:1006C0003C858B899C89281B390B3C872B87ED84C3
:1006D000FE840F851889AD88BE88CF88D88CEA142F
:1006E000FB040C051D0540F4EE0CFF1C001F111F40
:1006F000215030403C872B8720E030E040E050E044
:1007000080E090E0A0E0B0E460E070E0EA14FB0478
:100710000C051D0540F0282B392B4A2B5B2BEA18C2
:10072000FB080C091D09B695A79597958795EE0CC2
:10073000FF1C001F111F6F5F7F4F6F31710531F775
:10074000DA01C9018F779070A070B0708034910584
:10075000A105B10561F427FD0AC0E114F10401050A
:10076000110529F0205C3F4F4F4F5F4F20782D87B8
:100770003E874F87588BBE01675F7F4FCB010E943A
:10078000A9046896EAE00C942412A8E1B0E0EBEC2E
:10079000F3E00C940C1269837A838B839C832D8302
:1007A0003E834F83588789E0E82EF12CEC0EFD1E26
:1007B000CE010196B7010E947E058E010F5E1F4F8C
:1007C000CE010596B8010E947E058985823040F0F1
:1007D0008989823028F0C701B8010E94F60501C05E
:1007E0008FEF6896E6E00C942812A8E1B0E0EBEFFA
:1007F000F3E00C940C1269837A838B839C832D83A2
:100800003E834F83588789E0E82EF12CEC0EFD1EC5
:10081000CE010196B7010E947E058E010F5E1F4F2B
:10082000CE010596B8010E947E058985823040F090
:100830008989823028F0C701B8010E94F60501C0FD
:100840008FEF6896E6E00C942812A8E1B0E0EBE2A6
:10085000F4E00C940C1269837A838B839C832D8340
:100860003E834F83588789E0E82EF12CEC0EFD1E65
:10087000CE010196B7010E947E058E010F5E1F4FCB
:10088000CE010596B8010E947E058985823040F030
:100890008989823028F0C701B8010E94F60501C09D
:1008A00081E06896E6E00C942812ACE0B0E0EBE55D
:1008B000F4E00C94101269837A838B839C83CE01BD
:1008C0000196BE016B5F7F4F0E947E058D81823055
:1008D00061F1823050F1843021F48E81882351F10E
:1008E0002EC02F81388537FD20C06E812F31310514
:1008F0001CF06623F9F023C08EE190E0821B930B7D
:1009000029853A854B855C8504C056954795379572
:1009100027958A95D2F76623B1F05095409530958A
:1009200021953F4F4F4F5F4F0EC020E030E040E039
:1009300050E009C02FEF3FEF4FEF5FE704C020E02A
:1009400030E040E050E8B901CA012C96E2E00C9496
:100950002C12DF92EF92FF920F931F93FC01E48021
:10096000F58006811781D1808081823048F480E053
:1009700090E0A0E1B0E0E82AF92A0A2B1B2BA5C0E1
:10098000843009F49FC0823021F4EE24FF248701D3
:1009900005C0E114F1040105110519F4E0E0F0E0EF
:1009A00096C0628173819FEF623879070CF05BC05B
:1009B00022E83FEF261B370B2A3131052CF020E0CF
:1009C00030E040E050E02AC0B801A701022E04C088
:1009D00076956795579547950A94D2F781E090E010
:1009E000A0E0B0E004C0880F991FAA1FBB1F2A9582
:1009F000D2F70197A109B1098E219F21A023B1232C
:100A00000097A105B10521F081E090E0A0E0B0E001
:100A10009A01AB01282B392B4A2B5B2BDA01C90138
:100A20008F779070A070B07080349105A105B105EA
:100A300039F427FF09C0205C3F4F4F4F5F4F04C080
:100A4000215C3F4F4F4F5F4FE0E0F0E02030A0E0EF
:100A50003A07A0E04A07A0E45A0710F0E1E0F0E00E
:100A600079018A0127C06038710564F5FB01E158FE
:100A7000FF4FD801C7018F779070A070B07080349D
:100A80009105A105B10539F4E7FE0DC080E490E0C1
:100A9000A0E0B0E004C08FE390E0A0E0B0E0E80E9A
:100AA000F91E0A1F1B1F17FF05C016950795F7941F
:100AB000E794319687E016950795F794E7948A9521
:100AC000D1F705C0EE24FF248701EFEFF0E06E2F91
:100AD000679566276795902F9F77D794DD24D794E5
:100AE0008E2F8695492F462B582F5D29B701CA01B5
:100AF0001F910F91FF90EF90DF900895FC01DB01B3
:100B0000408151812281622F6F7770E0221F22275E
:100B1000221F9381892F880F822B282F30E0991F65
:100B20009927991F11969C93119721153105A9F5C5
:100B3000411551056105710511F482E037C082E865
:100B40009FEF13969C938E9312979A01AB0167E0E7
:100B5000220F331F441F551F6A95D1F783E08C93F2
:100B60000DC0220F331F441F551F12968D919C916B
:100B70001397019713969C938E931297203080E0E1
:100B8000380780E0480780E4580758F314962D93FF
:100B90003D934D935C93179708952F3F310579F45A
:100BA000411551056105710519F484E08C93089590
:100BB00064FF03C081E08C9312C01C9210C02F57B9
:100BC000304013963C932E93129783E08C9387E0EA
:100BD000440F551F661F771F8A95D1F770641496CE
:100BE0004D935D936D937C93179708951F93DC014C
:100BF000FB019C91923008F447C08081823008F458
:100C000043C0943051F411961C91843099F5818140
:100C1000682F70E0611B71093FC0843021F0923071
:100C200031F48230B9F18181882389F12DC0119688
:100C30001C9111978230F1F081811817D9F4129626
:100C40002D913C911397828193818217930794F0A1
:100C500028173907BCF014968D919D910D90BC9189
:100C6000A02D2481358146815781281739074A07ED
:100C70005B0718F4112341F00AC082179307A407F9
:100C8000B50740F4112319F061E070E005C06FEF83
:100C90007FEF02C060E070E0CB011F910895DF9309
:100CA000CF93CDB7DEB7AFE5B0E0EFE5F0E0808100
:100CB00080688C93CF91DF910895DF93CF93CDB768
:100CC000DEB7AFE5B0E0EFE5F0E0808180688C93BF
:100CD000CF91DF910895DF93CF93CDB7DEB7A5E530
:100CE000B0E0E5E5F0E0808181608C93A5E5B0E0BF
:100CF000E5E5F0E0808182608C93A5E5B0E0E5E574
:100D0000F0E0808184608C93A5E5B0E0E5E5F0E05B
:100D1000808188608C93A4E5B0E0E4E5F0E0808118
:100D20008F7B8C93CF91DF910895DF93CF9300D089
:100D30000F92CDB7DEB789838981282F30E03B83BE
:100D40002A838A819B818130910589F02A813B81A8
:100D500022303105A1F08A819B810097B9F4ABE57F
:100D6000B0E0EBE5F0E0808180648C930FC0ABE5F0
:100D7000B0E0EBE5F0E0808180688C9307C0ABE5E4
:100D8000B0E0EBE5F0E0808180628C930F900F90F3
:100D90000F90CF91DF910895DF93CF9300D00F9202
:100DA000CDB7DEB789838981282F30E03B832A8342
:100DB0008A819B818130910589F02A813B81223093
:100DC0003105A1F08A819B810097B9F4ABE5B0E0D1
:100DD000EBE5F0E080818F7B8C930FC0ABE5B0E05A
:100DE000EBE5F0E080818F778C9307C0ABE5B0E056
:100DF000EBE5F0E080818F7D8C930F900F900F904A
:100E0000CF91DF910895DF93CF93CDB7DEB72A97C7
:100E10000FB6F894DEBF0FBECDBF89836A83898188
:100E2000282F30E03A87298789859A858130910576
:100E300009F466C029853A852230310509F4BBC022
:100E400089859A85009709F0D5C08A81282F30E0DE
:100E500038872F838F8198858130910521F12F81EB
:100E60003885223031052CF48F819885009761F008
:100E7000C1C02F8138852230310599F18F81988545
:100E800083309105F9F0B6C0A5E5B0E0E5E5F0E006
:100E900080818E7F8C93A5E5B0E0E5E5F0E0808170
:100EA0008D7F8C93A7C0A5E5B0E0E5E5F0E08081FB
:100EB0008E7F8C93A5E5B0E0E5E5F0E0808182606F
:100EC0008C9398C0A5E5B0E0E5E5F0E08081816015
:100ED0008C93A5E5B0E0E5E5F0E080818D7F8C9313
:100EE00089C0A5E5B0E0E5E5F0E0808181608C9304
:100EF000A5E5B0E0E5E5F0E0808182608C937AC002
:100F00008A81282F30E03E832D838D819E81813020
:100F1000910521F12D813E81223031052CF48D8106
:100F20009E81009761F066C02D813E81223031059F
:100F300099F18D819E8183309105F9F05BC0A5E523
:100F4000B0E0E5E5F0E080818B7F8C93A5E5B0E033
:100F5000E5E5F0E08081877F8C934CC0A5E5B0E0AB
:100F6000E5E5F0E080818B7F8C93A5E5B0E0E5E5D9
:100F7000F0E0808188608C933DC0A5E5B0E0E5E5B8
:100F8000F0E0808184608C93A5E5B0E0E5E5F0E0D9
:100F90008081877F8C932EC0A5E5B0E0E5E5F0E089
:100FA000808184608C93A5E5B0E0E5E5F0E0808188
:100FB00088608C931FC08A81282F30E03C832B836C
:100FC0008B819C818130910531F02B813C812230D5
:100FD000310549F00FC0A4E5B0E0E4E5F0E0808120
:100FE0008F7B8C9307C0A4E5B0E0E4E5F0E080815E
:100FF00080648C932A960FB6F894DEBF0FBECDBFE7
:10100000CF91DF910895DF93CF9300D000D0CDB77B
:10101000DEB789836A838981282F30E03C832B8364
:101020008B819C8181309105D1F02B813C812230D4
:1010300031052CF48B819C81009761F01EC02B81BF
:101040003C812230310581F08B819C818330910578
:1010500081F013C0EAE3F0E08A8180830EC0E7E309
:10106000F0E08A81808309C0E4E3F0E08A81808334
:1010700004C0E1E3F0E08A8180830F900F900F902D
:101080000F90CF91DF910895DF93CF9300D000D0E0
:10109000CDB7DEB789836A838981282F30E03C830E
:1010A0002B838B819C8181309105D1F02B813C81F8
:1010B000223031052CF48B819C81009761F01EC099
:1010C0002B813C812230310581F08B819C818330E2
:1010D000910581F013C0EBE3F0E08A8180830EC0BC
:1010E000E8E3F0E08A81808309C0E5E3F0E08A81EB
:1010F000808304C0E2E3F0E08A8180830F900F9048
:101100000F900F90CF91DF910895DF93CF9300D090
:1011100000D00F92CDB7DEB78A838A818430A8F5DC
:101120008A81282F30E03D832C838C819D81813002
:101130009105D1F02C813D81223031052CF48C8138
:101140009D81009761F01EC02C813D8122303105C8
:1011500081F08C819D818330910581F013C0E9E39A
:10116000F0E0808189830EC0E6E3F0E0808189832E
:1011700009C0E3E3F0E08081898304C0E0E3F0E0AC
:101180008081898399819B8301C01B828B810F9011
:101190000F900F900F900F90CF91DF910895DF93F4
:1011A000CF9300D000D00F92CDB7DEB789836A838A
:1011B0004B838A81883008F0E4C08981843008F04C
:1011C000E0C08981282F30E03D832C838C819D8174
:1011D0008130910509F447C02C813D8122303105D1
:1011E0002CF48C819D81009771F0CBC02C813D81C6
:1011F0002230310509F467C08C819D8183309105CF
:1012000009F491C0BEC08B818130A1F4AAE3B0E0A3
:10121000EAE3F0E08081482F8A81282F30E081E0E6
:1012200090E0022E02C0880F991F0A94E2F7842BE7
:101230008C93A7C08B81882309F0A3C0AAE3B0E0F8
:10124000EAE3F0E08081482F8A81282F30E081E0B6
:1012500090E0022E02C0880F991F0A94E2F7809551
:1012600084238C938EC08B818130A1F4A7E3B0E0FE
:10127000E7E3F0E08081482F8A81282F30E081E089
:1012800090E0022E02C0880F991F0A94E2F7842B87
:101290008C9377C08B81882309F073C0A7E3B0E0FB
:1012A000E7E3F0E08081482F8A81282F30E081E059
:1012B00090E0022E02C0880F991F0A94E2F78095F1
:1012C00084238C935EC08B818130A1F4A4E3B0E0D1
:1012D000E4E3F0E08081482F8A81282F30E081E02C
:1012E00090E0022E02C0880F991F0A94E2F7842B27
:1012F0008C9347C08B81882309F043C0A4E3B0E0FE
:10130000E4E3F0E08081482F8A81282F30E081E0FB
:1013100090E0022E02C0880F991F0A94E2F7809590
:1013200084238C932EC08B818130A1F4A1E3B0E0A3
:10133000E1E3F0E08081482F8A81282F30E081E0CE
:1013400090E0022E02C0880F991F0A94E2F7842BC6
:101350008C9317C08B818823A1F4A1E3B0E0E1E373
:10136000F0E08081482F8A81282F30E081E090E0F2
:10137000022E02C0880F991F0A94E2F780958423F9
:101380008C930F900F900F900F900F90CF91DF9153
:101390000895DF93CF9300D000D00F92CDB7DEB782
:1013A00089836A834B838A81883008F0E0C0898111
:1013B000282F30E03D832C838C819D8181309105E5
:1013C00009F447C02C813D81223031052CF48C81F9
:1013D0009D81009771F0CBC02C813D812230310579
:1013E00009F467C08C819D818330910509F491C017
:1013F000BEC08B818130A1F4ABE3B0E0EBE3F0E061
:101400008081482F8A81282F30E081E090E0022EF1
:1014100002C0880F991F0A94E2F7842B8C93A7C00F
:101420008B81882309F0A3C0ABE3B0E0EBE3F0E0ED
:101430008081482F8A81282F30E081E090E0022EC1
:1014400002C0880F991F0A94E2F7809584238C9339
:101450008EC08B818130A1F4A8E3B0E0E8E3F0E036
:101460008081482F8A81282F30E081E090E0022E91
:1014700002C0880F991F0A94E2F7842B8C9377C0DF
:101480008B81882309F073C0A8E3B0E0E8E3F0E0C3
:101490008081482F8A81282F30E081E090E0022E61
:1014A00002C0880F991F0A94E2F7809584238C93D9
:1014B0005EC08B818130A1F4A5E3B0E0E5E3F0E00C
:1014C0008081482F8A81282F30E081E090E0022E31
:1014D00002C0880F991F0A94E2F7842B8C9347C0AF
:1014E0008B81882309F043C0A5E3B0E0E5E3F0E099
:1014F0008081482F8A81282F30E081E090E0022E01
:1015000002C0880F991F0A94E2F7809584238C9378
:101510002EC08B818130A1F4A2E3B0E0E2E3F0E0E1
:101520008081482F8A81282F30E081E090E0022ED0
:1015300002C0880F991F0A94E2F7842B8C9317C07E
:101540008B818823A1F4A2E3B0E0E2E3F0E08081A4
:10155000482F8A81282F30E081E090E0022E02C0DF
:10156000880F991F0A94E2F7809584238C930F903B
:101570000F900F900F900F90CF91DF910895DF9310
:10158000CF9300D000D0CDB7DEB789836A8389813D
:10159000282F30E03C832B838B819C818130910507
:1015A00049F12B813C81223031052CF48B819C81C7
:1015B000009761F05AC02B813C812230310571F1D6
:1015C0008B819C8183309105E9F14FC0ABE3B0E0A2
:1015D000EBE3F0E08081482F8A81282F30E081E022
:1015E00090E0022E02C0880F991F0A94E2F7842728
:1015F0008C933BC0A8E3B0E0E8E3F0E08081482FA3
:101600008A81282F30E081E090E0022E02C0880F0E
:10161000991F0A94E2F784278C9327C0A5E3B0E0D2
:10162000E5E3F0E08081482F8A81282F30E081E0D7
:1016300090E0022E02C0880F991F0A94E2F78427D7
:101640008C9313C0A2E3B0E0E2E3F0E08081482F86
:101650008A81282F30E081E090E0022E02C0880FBE
:10166000991F0A94E2F784278C930F900F900F90A4
:101670000F90CF91DF910895DF93CF9300D000D0EA
:101680000F92CDB7DEB78A836B838B81883008F0E9
:101690006BC08A81843008F067C08A81282F30E0CF
:1016A0003D832C834C815D814130510541F18C811A
:1016B0009D818230910534F42C813D8121153105C5
:1016C00061F052C04C815D814230510551F18C81F5
:1016D0009D8183309105B9F147C0E9E3F0E0808155
:1016E000282F30E08B81882F90E0A90102C055950A
:1016F00047958A95E2F7CA018170898335C0E6E390
:10170000F0E08081282F30E08B81882F90E0A901C4
:1017100002C0559547958A95E2F7CA018170898381
:1017200023C0E3E3F0E08081282F30E08B81882F15
:1017300090E0A90102C0559547958A95E2F7CA0144
:101740008170898311C0E0E3F0E08081282F30E0D0
:101750008B81882F90E0A90102C0559547958A9505
:10176000E2F7CA018170898389810F900F900F90F1
:101770000F900F90CF91DF910895DF93CF9300D01A
:1017800000D0CDB7DEB789836A834B832C838C81ED
:10179000882351F48A816B8141E00E94CF088981BE
:1017A0006FEF0E9403080CC08C81813049F48A815C
:1017B0006B8141E00E94CF0889816FEF0E9403088E
:1017C0000F900F900F900F90CF91DF910895DF93BE
:1017D000CF9300D00F92CDB7DEB789836A834B8356
:1017E0008B81882331F489816A8140E00E94C90994
:1017F00008C08B81813029F489816A8141E00E948F
:10180000C9090F900F900F90CF91DF910895DF934A
:10181000CF9300D00F92CDB7DEB789836A834B8315
:101820008B81882331F489816A8141E00E94C90952
:1018300008C08B81813029F489816A8140E00E944F
:10184000C9090F900F900F90CF91DF910895DF930A
:10185000CF9300D00F92CDB7DEB789836A834B83D5
:101860008A81882361F48B81882F90E0FC01E859FC
:10187000FF4F90818981692F0E94440810C08A819E
:10188000813069F48B81882F90E0FC01E859FF4F8B
:101890008081982F90958981692F0E9444080F902C
:1018A0000F900F90CF91DF9108950F931F93DF93C7
:1018B000CF93CDB7DEB7CA55D0400FB6F894DEBF90
:1018C0000FBECDBF83E064E041E00E94CF0883E01B
:1018D00061E041E00E94CF0883E060E041E00E94C7
:1018E000CF0882E06FEF0E940308FE01E95AFF4F24
:1018F00080E090E0A0EFB1E480839183A283B38382
:101900008E010D5A1F4FFE01E95AFF4F6081718110
:101910008281938120E030E04AEF54E40E941F026C
:10192000DC01CB01F80180839183A283B383FE01A4
:10193000ED5AFF4F608171818281938120E030E018
:1019400040E85FE30E942504882344F4FE01EF5A37
:10195000FF4F81E090E09183808364C0FE01ED5AE7
:10196000FF4F608171818281938120E03FEF4FE7DB
:1019700057E40E94C50318160CF043C0FE01E95A53
:10198000FF4F608171818281938120E030E040E2ED
:1019900051E40E941F02DC01CB018E010F5A1F4F40
:1019A000BC01CD010E944900DC01CB01F80191830B
:1019B00080831FC0FE01E15BFF4F88EC90E09183C4
:1019C0008083FE01E15BFF4F808191810197F1F7F8
:1019D000FE01E15BFF4F91838083DE01AF5ABF4F71
:1019E000FE01EF5AFF4F80819181019711969C93E0
:1019F0008E93FE01EF5AFF4F808191810097D1F6BF
:101A000027C08E010F5A1F4FFE01ED5AFF4F608114
:101A10007181828193810E944900DC01CB01F80130
:101A200091838083DE01A35BBF4FFE01EF5AFF4F1E
:101A3000808191818D939C93FE01E35BFF4F8081B8
:101A400091810197F1F7FE01E35BFF4F9183808362
:101A500088E30E94CC0FFE01E75BFF4F80E090E03F
:101A6000A0E2B2E480839183A283B3838E010B5BF7
:101A70001F4FFE01E75BFF4F60817181828193817F
:101A80002BEA3AEA4AE250E40E941F02DC01CB0151
:101A9000F80180839183A283B383FE01EB5BFF4F48
:101AA000608171818281938120E030E040E85FE3D2
:101AB0000E942504882334F4FE01EC5BFF4F81E093
:101AC0008083A7C0FE01EB5BFF4F60817181828143
:101AD000938120E030E04FE753E40E94C5031816DD
:101AE0000CF087C0FE01E75BFF4F6081718182814E
:101AF000938120E030E04AE754E40E941903DC01BE
:101B0000CB01FE01E05CFF4F80839183A283B3830E
:101B1000FE01E05CFF4F608171818281938120E052
:101B200030E04AEF54E40E941F02DC01CB018CAF8D
:101B30009DAFAEAFBFAF6CAD7DAD8EAD9FAD20E0C4
:101B400030E040E85FE30E94250488232CF481E024
:101B500090E09BAF8AAF42C06CAD7DAD8EAD9FADC6
:101B600020E03FEF4FE757E40E94C503181664F5E5
:101B7000FE01E05CFF4F608171818281938120E0F2
:101B800030E040E251E40E941F02DC01CB01BC01C5
:101B9000CD010E944900DC01CB019BAF8AAF0FC091
:101BA00088EC90E099AF88AF88AD99AD0197F1F7D7
:101BB00099AF88AF8AAD9BAD01979BAF8AAF8AADD5
:101BC0009BAD009769F72EC06CAD7DAD8EAD9FAD1E
:101BD0000E944900DC01CB019BAF8AAF8AAD9BAD6F
:101BE0009FAB8EAB8EA99FA90197F1F79FAB8EABF0
:101BF00019C08E010C5B1F4FFE01EB5BFF4F608134
:101C00007181828193810E944900DC01CB01F8013E
:101C10008083FE01EC5BFF4F80818DAB8DA98A959F
:101C2000F1F78DAB8CE00E94CC0F80E090E0A0E259
:101C3000B2E489AB9AABABABBCAB69A97AA98BA96F
:101C40009CA92BEA3AEA4AE250E40E941F02DC0116
:101C5000CB018DA79EA7AFA7B8AB6DA57EA58FA51D
:101C600098A920E030E040E85FE30E942504882343
:101C70001CF481E08CA791C06DA57EA58FA598A9C5
:101C800020E030E04FE753E40E94C50318160CF043
:101C90007BC069A97AA98BA99CA920E030E04AE71A
:101CA00054E40E941903DC01CB0188A799A7AAA7D5
:101CB000BBA768A579A58AA59BA520E030E04AEFDF
:101CC00054E40E941F02DC01CB018CA39DA3AEA3B0
:101CD000BFA36CA17DA18EA19FA120E030E040E8D0
:101CE0005FE30E94250488232CF481E090E09BA30D
:101CF0008AA33FC06CA17DA18EA19FA120E03FEFF0
:101D00004FE757E40E94C50318164CF568A579A55E
:101D10008AA59BA520E030E040E251E40E941F022A
:101D2000DC01CB01BC01CD010E944900DC01CB01EB
:101D30009BA38AA30FC088EC90E099A388A388A1F5
:101D400099A10197F1F799A388A38AA19BA1019773
:101D50009BA38AA38AA19BA1009769F724C06CA1C9
:101D60007DA18EA19FA10E944900DC01CB019BA314
:101D70008AA38AA19BA19F8F8E8F8E8D9F8D0197A5
:101D8000F1F79F8F8E8F0FC06DA57EA58FA598A9A7
:101D90000E944900DC01CB018CA78CA58D8F8D8D15
:101DA0008A95F1F78D8F81E00E94CC0F80E090E062
:101DB000A0E0B0E4898F9A8FAB8FBC8F698D7A8D4C
:101DC0008B8D9C8D20E030E04AEF54E40E941F028E
:101DD000DC01CB018D8B9E8BAF8BB88F6D897E899B
:101DE0008F89988D20E030E040E85FE30E94250471
:101DF00088232CF481E090E09C8B8B8B3FC06D8915
:101E00007E898F89988D20E03FEF4FE757E40E944D
:101E1000C50318164CF5698D7A8D8B8D9C8D20E04D
:101E200030E040E251E40E941F02DC01CB01BC0122
:101E3000CD010E944900DC01CB019C8B8B8B0FC034
:101E400088EC90E09A8B898B89899A890197F1F7C0
:101E50009A8B898B8B899C8901979C8B8B8B8B8927
:101E60009C89009769F714C06D897E898F89988D48
:101E70000E944900DC01CB019C8B8B8B8B899C8958
:101E8000988B8F878F8598890197F1F7988B8F872B
:101E900086E00E94CC0F80E090E0A0EFB1E48B8759
:101EA0009C87AD87BE876B857C858D859E8520E070
:101EB00030E04AEF54E40E941F02DC01CB018F8323
:101EC0009887A987BA876F81788589859A8520E068
:101ED00030E040E85FE30E94250488232CF481E091
:101EE00090E09E838D833FC06F81788589859A8538
:101EF00020E03FEF4FE757E40E94C50318164CF56A
:101F00006B857C858D859E8520E030E040E251E444
:101F10000E941F02DC01CB01BC01CD010E944900DF
:101F2000DC01CB019E838D830FC088EC90E09C8305
:101F30008B838B819C810197F1F79C838B838D81AF
:101F40009E8101979E838D838D819E81009769F785
:101F500014C06F81788589859A850E944900DC01CB
:101F6000CB019E838D838D819E819A838983898114
:101F70009A810197F1F79A83898382E00E94CC0FBE
:101F8000C65ADF4F0FB6F894DEBF0FBECDBFCF915C
:101F9000DF911F910F910895DF93CF930F92CDB7EB
:101FA000DEB7898383E064E040E00E94C90983E0F2
:101FB00061E040E00E94C90982E069810E94440812
:101FC0000E946D100F90CF91DF910895DF93CF9312
:101FD0000F92CDB7DEB7898383E064E041E00E94D1
:101FE000C90983E061E040E00E94C90982E069819B
:101FF0000E9444080E946D100F90CF91DF910895C8
:10200000DF93CF9300D00F92CDB7DEB79B838A8347
:1020100019820EC08981282F30E08A819B81FC01C2
:10202000E20FF31F80810E94E60F89818F5F898311
:102030008981282F30E08A819B81FC01E20FF31F08
:102040008081882339F70F900F900F90CF91DF9107
:102050000895DF93CF9300D000D0CDB7DEB79A8339
:1020600089836B834C838B816C810E9442108981B0
:102070009A810E9400100F900F900F900F90CF91B7
:10208000DF910895DF93CF9300D000D0CDB7DEB7B6
:1020900089836A838A8181508A838981282F30E0ED
:1020A0003C832B838B819C818130910531F02B8186
:1020B0003C812230310531F009C08A8180580E946C
:1020C000CC0F04C08A8180540E94CC0F0F900F90D7
:1020D0000F900F90CF91DF910895DF93CF93CDB7FD
:1020E000DEB72E970FB6F894DEBF0FBECDBF83E0EC
:1020F00060E041E00E94C90980E090E0A0E4B0E423
:102100008B879C87AD87BE876B857C858D859E85FB
:1021100020E030E04AEF54E40E941F02DC01CB01D2
:102120008F839887A987BA876F81788589859A85F3
:1021300020E030E040E85FE30E94250488232CF48F
:1021400081E090E09E838D833FC06F817885898593
:102150009A8520E03FEF4FE757E40E94C503181629
:102160004CF56B857C858D859E8520E030E040E2D6
:1021700051E40E941F02DC01CB01BC01CD010E9491
:102180004900DC01CB019E838D830FC088EC90E079
:102190009C838B838B819C810197F1F79C838B833C
:1021A0008D819E8101979E838D838D819E81009775
:1021B00069F714C06F81788589859A850E944900E6
:1021C000DC01CB019E838D838D819E819A838983DF
:1021D00089819A810197F1F79A83898383E060E08E
:1021E00040E00E94C9092E960FB6F894DEBF0FBEDC
:1021F000CDBFCF91DF910895DF93CF930F92CDB7ED
:10220000DEB783E089830DC080E0698141E00E94F0
:10221000CF0880E0698141E00E94C90989818F5F10
:1022200089838981882381F384E089830DC080E0DC
:10223000698140E00E94CF0880E0698141E00E940E
:10224000C90989818F5F89838981883080F30F90E4
:10225000CF91DF910895DF93CF9300D000D0CDB719
:10226000DEB78FEF8C831B821A82198283E08A8308
:102270003EC083E0898308C080E0698141E00E941C
:10228000C90989818F5F898389818823A9F380E0C7
:102290006A8140E00E94C90984E08B8322C080E00B
:1022A0006B810E943C0B8823C9F48B81882F90E0BE
:1022B000AC01445050408A81882F90E09C0123500B
:1022C0003040CA01880F991F880F991F820F931FF2
:1022D000FC01EE58FF4F80818C8306C08B818F5F9D
:1022E0008B838B818830D8F28A818F5F8A838A8141
:1022F000882309F4BECF8C810F900F900F900F9020
:10230000CF91DF910895DF93CF93CDB7DEB70E94D1
:102310004F060E946B0680E00E94950681E00E94B5
:10232000950683E060E041E00E94CF0883E061E031
:1023300041E00E94CF0883E062E040E00E94CF08C5
:1023400083E062E041E00E94C90983E063E040E08D
:102350000E94CF0883E063E041E00E94C909FFCFFB
:102360001F920F920FB60F9211242F933F934F930A
:102370005F936F937F938F939F93AF93BF93EF93ED
:10238000FF93DF93CF93CDB7DEB783E060E00E9489
:10239000BF0ACF91DF91FF91EF91BF91AF919F91D4
:1023A0008F917F916F915F914F913F912F910F90FE
:1023B0000FBE0F901F9018951F920F920FB60F929D
:1023C00011248F939F93AF93BF93EF93FF93DF936A
:1023D000CF93CDB7DEB7A2E3B0E0E2E3F0E09081C7
:1023E00082E089278C93CF91DF91FF91EF91BF918C
:1023F000AF919F918F910F900FBE0F901F901895E6
:102400002F923F924F925F926F927F928F929F9204
:10241000AF92BF92CF92DF92EF92FF920F931F93F2
:10242000CF93DF93CDB7DEB7CA1BDB0B0FB6F894A3
:10243000DEBF0FBECDBF09942A88398848885F84E3
:102440006E847D848C849B84AA84B984C884DF8054
:10245000EE80FD800C811B81AA81B981CE0FD11D38
:102460000FB6F894DEBF0FBECDBFED010895F8940E
:02247000FFCF9C
:1024720000000000000000003F065B4F666D7D0714
:102482007F6F3738392F3435362A3132332D2330A6
:022492003D2BE0
:00000001FF
